{"address":"0xE453116F690FD9B9A38703A45211aa08bB0Cbf16","bytecode":"0x60c060405234801561001057600080fd5b50604051610d97380380610d9783398101604081905261002f916100ec565b6001600160a01b03811660a08190526040805163d95de76b60e01b8152905163d95de76b9160048082019260009290919082900301818387803b15801561007557600080fd5b505af1158015610089573d6000803e3d6000fd5b50505050600060a05160405161009e906100df565b6001600160a01b039091168152602001604051809103906000f0801580156100ca573d6000803e3d6000fd5b506001600160a01b03166080525061011c9050565b6108118061058683390190565b6000602082840312156100fe57600080fd5b81516001600160a01b038116811461011557600080fd5b9392505050565b60805160a05161043961014d60003960008181606101526101c101526000818160d0015261016c01526104396000f3fe608060405234801561001057600080fd5b50600436106100575760003560e01c80637ceab3b11461005c5780639859387b146100995780639dca362f146100ac5780639fde0702146100b4578063a6644516146100cb575b600080fd5b6100837f000000000000000000000000000000000000000000000000000000000000000081565b604051610090919061036f565b60405180910390f35b6100836100a736600461039b565b6100f2565b610083610267565b6100bd60005481565b604051908152602001610090565b6100837f000000000000000000000000000000000000000000000000000000000000000081565b60006001600160a01b03821661014e5760405162461bcd60e51b815260206004820152601c60248201527b6163636f756e742d666163746f72792f7a65726f2d6164647265737360201b60448201526064015b60405180910390fd5b6000806000815461015e906103bf565b9182905550905060006101907f00000000000000000000000000000000000000000000000000000000000000006102d5565b6040516331568f3d60e21b81526001600160a01b0386811660048301528083166024830152600160448301529192507f00000000000000000000000000000000000000000000000000000000000000009091169063c55a3cf490606401600060405180830381600087803b15801561020757600080fd5b505af115801561021b573d6000803e3d6000fd5b5050505081846001600160a01b0316826001600160a01b03167f33310a89c32d8cc00057ad6ef6274d2f8fe22389a992cf89983e09fc84f6cfff60405160405180910390a49392505050565b604051639859387b60e01b81526000903090639859387b9061028d90339060040161036f565b6020604051808303816000875af11580156102ac573d6000803e3d6000fd5b505050506040513d601f19601f820116820180604052508101906102d091906103e6565b905090565b6000763d602d80600a3d3981f3363d3d373d3d3d363d730000008260601b60e81c176000526e5af43d82803e903d91602b57fd5bf38260781b17602052603760096000f090506001600160a01b03811661036a5760405162461bcd60e51b8152602060048201526016602482015275115490cc4c4d8dce8818dc99585d194819985a5b195960521b6044820152606401610145565b919050565b6001600160a01b0391909116815260200190565b6001600160a01b038116811461039857600080fd5b50565b6000602082840312156103ad57600080fd5b81356103b881610383565b9392505050565b6000600182016103df57634e487b7160e01b600052601160045260246000fd5b5060010190565b6000602082840312156103f857600080fd5b81516103b88161038356fea26469706673582212200f32e9d100eb3912507057e680b28d6393c7e6a3e0d8601a39d3775e84dc25df64736f6c634300080f003360a060405234801561001057600080fd5b5060405161081138038061081183398101604081905261002f916100a4565b6001600160a01b0381166100935760405162461bcd60e51b815260206004820152602160248201527f6163636f756e742d67756172642f77726f6e672d67756172642d6164647265736044820152607360f81b606482015260840160405180910390fd5b6001600160a01b03166080526100d4565b6000602082840312156100b657600080fd5b81516001600160a01b03811681146100cd57600080fd5b9392505050565b60805161070e6101036000396000818160bf015281816101220152818161023b01526102be015261070e6000f3fe6080604052600436106100435760003560e01c80631cff79cd146100875780637ceab3b1146100ad5780638da5cb5b146100ee578063c89acc861461010357600080fd5b3661008257604080513381523460208201527f4c2ffa71705c7e25830709a453da0f6066957bd706c2b7f1b7fc66d3805e92f7910160405180910390a1005b600080fd5b61009a610095366004610470565b610118565b6040519081526020015b60405180910390f35b3480156100b957600080fd5b506100e17f000000000000000000000000000000000000000000000000000000000000000081565b6040516100a49190610533565b3480156100fa57600080fd5b506100e1610221565b610116610111366004610547565b6102b6565b005b60008260016000807f00000000000000000000000000000000000000000000000000000000000000006001600160a01b031663f526d1ee303387876040518563ffffffff1660e01b815260040161017294939291906105cb565b6040805180830381865afa15801561018e573d6000803e3d6000fd5b505050506040513d601f19601f820116820180604052508101906101b2919061060a565b91509150816101dc5760405162461bcd60e51b81526004016101d39061063d565b60405180910390fd5b806101f95760405162461bcd60e51b81526004016101d39061066e565b602060008751602089018a6113885a03f43d6000803e80801561021c5760206000f35b3d6000fd5b60405163022914a760e01b81526000906001600160a01b037f0000000000000000000000000000000000000000000000000000000000000000169063022914a790610270903090600401610533565b602060405180830381865afa15801561028d573d6000803e3d6000fd5b505050506040513d601f19601f820116820180604052508101906102b191906106a4565b905090565b8260008060007f00000000000000000000000000000000000000000000000000000000000000006001600160a01b031663f526d1ee303387876040518563ffffffff1660e01b815260040161030e94939291906105cb565b6040805180830381865afa15801561032a573d6000803e3d6000fd5b505050506040513d601f19601f8201168201806040525081019061034e919061060a565b915091508161036f5760405162461bcd60e51b81526004016101d39061063d565b8061038c5760405162461bcd60e51b81526004016101d39061066e565b6000876001600160a01b03163488886040516103a99291906106c8565b60006040518083038185875af1925050503d80600081146103e6576040519150601f19603f3d011682016040523d82523d6000602084013e6103eb565b606091505b50509050806104385760405162461bcd60e51b81526020600482015260196024820152781858d8dbdd5b9d0b59dd585c990bd8d85b1b0b59985a5b1959603a1b60448201526064016101d3565b5050505050505050565b6001600160a01b038116811461045757600080fd5b50565b634e487b7160e01b600052604160045260246000fd5b6000806040838503121561048357600080fd5b823561048e81610442565b915060208301356001600160401b03808211156104aa57600080fd5b818501915085601f8301126104be57600080fd5b8135818111156104d0576104d061045a565b604051601f8201601f19908116603f011681019083821181831017156104f8576104f861045a565b8160405282815288602084870101111561051157600080fd5b8260208601602083013760006020848301015280955050505050509250929050565b6001600160a01b0391909116815260200190565b60008060006040848603121561055c57600080fd5b833561056781610442565b925060208401356001600160401b038082111561058357600080fd5b818601915086601f83011261059757600080fd5b8135818111156105a657600080fd5b8760208285010111156105b857600080fd5b6020830194508093505050509250925092565b6001600160a01b039485168152928416602084015292166040820152901515606082015260800190565b8051801515811461060557600080fd5b919050565b6000806040838503121561061d57600080fd5b610626836105f5565b9150610634602084016105f5565b90509250929050565b6020808252601790820152761858d8dbdd5b9d0b59dd585c990bdb9bcb5c195c9b5a5d604a1b604082015260600190565b6020808252601c908201527b1858d8dbdd5b9d0b59dd585c990bda5b1b1959d85b0b5d185c99d95d60221b604082015260600190565b6000602082840312156106b657600080fd5b81516106c181610442565b9392505050565b818382376000910190815291905056fea2646970667358221220f07763b0a2e5b6a758a4b5d0316dcdab17019bc0df45e45cf769834385a3984064736f6c634300080f0033","abi":[{"inputs":[{"internalType":"address","name":"_guard","type":"address"}],"stateMutability":"nonpayable","type":"constructor"},{"anonymous":false,"inputs":[{"indexed":true,"internalType":"address","name":"proxy","type":"address"},{"indexed":true,"internalType":"address","name":"user","type":"address"},{"indexed":true,"internalType":"uint256","name":"vaultId","type":"uint256"}],"name":"AccountCreated","type":"event"},{"inputs":[],"name":"accountsGlobalCounter","outputs":[{"internalType":"uint256","name":"","type":"uint256"}],"stateMutability":"view","type":"function"},{"inputs":[{"internalType":"address","name":"user","type":"address"}],"name":"createAccount","outputs":[{"internalType":"address","name":"","type":"address"}],"stateMutability":"nonpayable","type":"function"},{"inputs":[],"name":"createAccount","outputs":[{"internalType":"address","name":"clone","type":"address"}],"stateMutability":"nonpayable","type":"function"},{"inputs":[],"name":"guard","outputs":[{"internalType":"contract AccountGuard","name":"","type":"address"}],"stateMutability":"view","type":"function"},{"inputs":[],"name":"proxyTemplate","outputs":[{"internalType":"address","name":"","type":"address"}],"stateMutability":"view","type":"function"}]}