{"address":"0x0c30352B6030E3CacFBcFc7F8bE65d4b6c128DF4","bytecode":"0x608060405234801561001057600080fd5b506040516102dc3803806102dc8339818101604052602081101561003357600080fd5b5051600180546001600160a01b0319166001600160a01b03909216919091179055610279806100636000396000f3fe608060405234801561001057600080fd5b50600436106100415760003560e01c80638e1a55fc14610046578063c45527911461006a578063f3701da214610090575b600080fd5b61004e6100b6565b604080516001600160a01b039092168252519081900360200190f35b61004e6004803603602081101561008057600080fd5b50356001600160a01b03166100c6565b61004e600480360360208110156100a657600080fd5b50356001600160a01b03166100e1565b60006100c1336100e1565b905090565b6000602081905290815260409020546001600160a01b031681565b6001600160a01b03818116600090815260208190526040812054909116158061018d57506001600160a01b0380831660008181526020818152604091829020548251638da5cb5b60e01b8152925193941692638da5cb5b926004808201939291829003018186803b15801561015557600080fd5b505afa158015610169573d6000803e3d6000fd5b505050506040513d602081101561017f57600080fd5b50516001600160a01b031614155b61019657600080fd5b600154604080516379b80ed160e11b81526001600160a01b0385811660048301529151919092169163f3701da29160248083019260209291908290030181600087803b1580156101e557600080fd5b505af11580156101f9573d6000803e3d6000fd5b505050506040513d602081101561020f57600080fd5b50516001600160a01b03928316600090815260208190526040902080546001600160a01b03191693821693909317909255509056fea265627a7a723158207d3120fb7cad90e6278db04822d1b09077b5f959f897dbadcf140d72b24ef81664736f6c63430005110032","abi":[{"inputs":[{"internalType":"address","name":"factory_","type":"address"}],"payable":false,"stateMutability":"nonpayable","type":"constructor"},{"constant":false,"inputs":[],"name":"build","outputs":[{"internalType":"address payable","name":"proxy","type":"address"}],"payable":false,"stateMutability":"nonpayable","type":"function"},{"constant":false,"inputs":[{"internalType":"address","name":"owner","type":"address"}],"name":"build","outputs":[{"internalType":"address payable","name":"proxy","type":"address"}],"payable":false,"stateMutability":"nonpayable","type":"function"},{"constant":true,"inputs":[{"internalType":"address","name":"","type":"address"}],"name":"proxies","outputs":[{"internalType":"contract DSProxy","name":"","type":"address"}],"payable":false,"stateMutability":"view","type":"function"}]}