{"address":"0xdC042d928e41b324Aa22FAb10c641BEfD53cc37F","bytecode":"0x608060405234801561001057600080fd5b506106da806100206000396000f3fe6080604052600436106100295760003560e01c806385e92d981461002e5780639093410d14610043575b600080fd5b61004161003c3660046103e0565b610097565b005b34801561004f57600080fd5b5061006361005e3660046104f1565b610103565b6040805182516001600160a01b03908116825260208085015190911690820152918101519082015260600160405180910390f35b60006100d884848080601f01602080910402602001604051908101604052809392919081815260200183838082843760009201919091525061010392505050565b6020810151604082015182519293506100fd926001600160a01b031691903090610138565b50505050565b6040805160608101825260008082526020808301829052928201528251909161013291840181019084016105a1565b92915050565b604080516001600160a01b038581166024830152848116604483015260648083018590528351808403909101815260849092018352602080830180516001600160e01b03166323b872dd60e01b17905283518085019094528084527f5361666545524332303a206c6f772d6c6576656c2063616c6c206661696c6564908401526100fd928792916000916101d0918516908490610257565b80519091501561025257808060200190518101906101ee9190610608565b6102525760405162461bcd60e51b815260206004820152602a60248201527f5361666545524332303a204552433230206f7065726174696f6e20646964206e6044820152691bdd081cdd58d8d9595960b21b60648201526084015b60405180910390fd5b505050565b6060610266848460008561026e565b949350505050565b606061027985610361565b6102c55760405162461bcd60e51b815260206004820152601d60248201527f416464726573733a2063616c6c20746f206e6f6e2d636f6e74726163740000006044820152606401610249565b600080866001600160a01b031685876040516102e19190610655565b60006040518083038185875af1925050503d806000811461031e576040519150601f19603f3d011682016040523d82523d6000602084013e610323565b606091505b509150915081156103375791506102669050565b8051156103475780518082602001fd5b8360405162461bcd60e51b81526004016102499190610671565b6000813f7fc5d2460186f7233c927e7db2dcc703c0e500b653ca82273b7bfad8045d85a470818114801590610266575050151592915050565b634e487b7160e01b600052604160045260246000fd5b604051601f8201601f191681016001600160401b03811182821017156103d8576103d861039a565b604052919050565b6000806000604084860312156103f557600080fd5b83356001600160401b038082111561040c57600080fd5b818601915086601f83011261042057600080fd5b81358181111561042f57600080fd5b6020888183860101111561044257600080fd5b80840196508195508088013593508284111561045d57600080fd5b838801935088601f85011261047157600080fd5b83359150828211156104855761048561039a565b8160051b92506104968184016103b0565b828152928401810192818101908a8511156104b057600080fd5b948201945b848610156104e1578535935060ff841684146104d15760008081fd5b83825294820194908201906104b5565b8096505050505050509250925092565b6000602080838503121561050457600080fd5b82356001600160401b038082111561051b57600080fd5b818501915085601f83011261052f57600080fd5b8135818111156105415761054161039a565b610553601f8201601f191685016103b0565b9150808252868482850101111561056957600080fd5b8084840185840137600090820190930192909252509392505050565b80516001600160a01b038116811461059c57600080fd5b919050565b6000606082840312156105b357600080fd5b604051606081016001600160401b03811182821017156105d5576105d561039a565b6040526105e183610585565b81526105ef60208401610585565b6020820152604083015160408201528091505092915050565b60006020828403121561061a57600080fd5b8151801515811461062a57600080fd5b9392505050565b60005b8381101561064c578181015183820152602001610634565b50506000910152565b60008251610667818460208701610631565b9190910192915050565b6020815260008251806020840152610690816040850160208701610631565b601f01601f1916919091016040019291505056fea2646970667358221220b4dd3eb786ce7b35505803c5a444dbae94e78c1569bd0c4c11f2c01aa8f2dbb964736f6c63430008120033","abi":[{"inputs":[{"internalType":"bytes","name":"data","type":"bytes"},{"internalType":"uint8[]","name":"","type":"uint8[]"}],"name":"execute","outputs":[],"stateMutability":"payable","type":"function"},{"inputs":[{"internalType":"bytes","name":"_callData","type":"bytes"}],"name":"parseInputs","outputs":[{"components":[{"internalType":"address","name":"asset","type":"address"},{"internalType":"address","name":"from","type":"address"},{"internalType":"uint256","name":"amount","type":"uint256"}],"internalType":"struct PullTokenData","name":"params","type":"tuple"}],"stateMutability":"pure","type":"function"}]}