{"address":"0xaCB6Ae9d3ff461b4d09aD0505fb80f8053b06AF1","bytecode":"0x608060405234801561001057600080fd5b506106e1806100206000396000f3fe60806040526004361061001e5760003560e01c806385e92d9814610023575b600080fd5b610036610031366004610465565b610038565b005b60006100468385018561058e565b90506000306001600160a01b0316638da5cb5b6040518163ffffffff1660e01b81526004016020604051808303816000875af115801561008a573d6000803e3d6000fd5b505050506040513d601f19601f820116820180604052508101906100ae91906105d9565b9050600073eeeeeeeeeeeeeeeeeeeeeeeeeeeeeeeeeeeeeeee6001600160a01b031683600001516001600160a01b031603610122575060405147906001600160a01b0383169082156108fc029083906000818181858888f1935050505015801561011c573d6000803e3d6000fd5b506101a6565b82516040516370a0823160e01b81523060048201526001600160a01b03909116906370a0823190602401602060405180830381865afa158015610169573d6000803e3d6000fd5b505050506040513d601f19601f8201168201806040525081019061018d91906105fd565b83519091506101a6906001600160a01b031683836101ae565b505050505050565b604080516001600160a01b038416602482015260448082018490528251808303909101815260649091019091526020810180516001600160e01b031663a9059cbb60e01b179052610200908490610205565b505050565b600061025a826040518060400160405280602081526020017f5361666545524332303a206c6f772d6c6576656c2063616c6c206661696c6564815250856001600160a01b03166102dc9092919063ffffffff16565b80519091501561020057808060200190518101906102789190610616565b6102005760405162461bcd60e51b815260206004820152602a60248201527f5361666545524332303a204552433230206f7065726174696f6e20646964206e6044820152691bdd081cdd58d8d9595960b21b60648201526084015b60405180910390fd5b60606102eb84846000856102f3565b949350505050565b60606102fe856103e6565b61034a5760405162461bcd60e51b815260206004820152601d60248201527f416464726573733a2063616c6c20746f206e6f6e2d636f6e747261637400000060448201526064016102d3565b600080866001600160a01b03168587604051610366919061065c565b60006040518083038185875af1925050503d80600081146103a3576040519150601f19603f3d011682016040523d82523d6000602084013e6103a8565b606091505b509150915081156103bc5791506102eb9050565b8051156103cc5780518082602001fd5b8360405162461bcd60e51b81526004016102d39190610678565b6000813f7fc5d2460186f7233c927e7db2dcc703c0e500b653ca82273b7bfad8045d85a4708181148015906102eb575050151592915050565b634e487b7160e01b600052604160045260246000fd5b604051601f8201601f191681016001600160401b038111828210171561045d5761045d61041f565b604052919050565b60008060006040848603121561047a57600080fd5b83356001600160401b038082111561049157600080fd5b818601915086601f8301126104a557600080fd5b8135818111156104b457600080fd5b602088818386010111156104c757600080fd5b8084019650819550808801359350828411156104e257600080fd5b838801935088601f8501126104f657600080fd5b833591508282111561050a5761050a61041f565b8160051b925061051b818401610435565b828152928401810192818101908a85111561053557600080fd5b948201945b84861015610566578535935060ff841684146105565760008081fd5b838252948201949082019061053a565b8096505050505050509250925092565b6001600160a01b038116811461058b57600080fd5b50565b6000602082840312156105a057600080fd5b604051602081016001600160401b03811182821017156105c2576105c261041f565b60405282356105d081610576565b81529392505050565b6000602082840312156105eb57600080fd5b81516105f681610576565b9392505050565b60006020828403121561060f57600080fd5b5051919050565b60006020828403121561062857600080fd5b815180151581146105f657600080fd5b60005b8381101561065357818101518382015260200161063b565b50506000910152565b6000825161066e818460208701610638565b9190910192915050565b6020815260008251806020840152610697816040850160208701610638565b601f01601f1916919091016040019291505056fea26469706673582212208e32c79f8144a247ef3b2cedbf820e27bbf6f866119c9485fef0f6c5c171ed3e64736f6c63430008120033","abi":[{"inputs":[{"internalType":"bytes","name":"data","type":"bytes"},{"internalType":"uint8[]","name":"","type":"uint8[]"}],"name":"execute","outputs":[],"stateMutability":"payable","type":"function"}]}