{"address":"0x998AA1d798a30Ed6E864c503e006189e63979B3C","bytecode":"0x608060405234801561001057600080fd5b5061001a3361001f565b61006f565b600080546001600160a01b038381166001600160a01b0319831681178455604051919092169283917f8be0079c531659141344cd1fd0a4f28419497f9722a3daafe3b4186f6b6457e09190a35050565b610a3c8061007e6000396000f3fe608060405234801561001057600080fd5b50600436106100af5760003560e01c8063022914a7146100b45780632658bb2a146100fa5780633a169f1a1461011d5780633af32abf1461013257806353d6fd5914610145578063715018a6146101585780638da5cb5b14610160578063a17c4ac214610168578063c55a3cf41461017b578063d95de76b1461018e578063f00d4b5d14610196578063f2fde38b146101a9578063f526d1ee146101bc575b600080fd5b6100dd6100c23660046108e7565b6004602052600090815260409020546001600160a01b031681565b6040516001600160a01b0390911681526020015b60405180910390f35b61010d6101083660046108e7565b6101e6565b60405190151581526020016100f1565b61013061012b366004610912565b610206565b005b61010d6101403660046108e7565b610283565b610130610153366004610912565b6102a3565b6101306102fd565b6100dd610311565b61010d610176366004610945565b610320565b61013061018936600461096f565b610379565b61013061058e565b6101306101a4366004610945565b6105f7565b6101306101b73660046108e7565b61074d565b6101cf6101ca3660046109b2565b6107c6565b6040805192151583529015156020830152016100f1565b6001600160a01b0316600090815260036020526040902054600216151590565b61020e61081c565b80610234576001600160a01b03821660009081526003602052604090205460fd16610254565b6001600160a01b03821660009081526003602052604090205460ff166002175b6001600160a01b03929092166000908152600360205260409020805460ff191660ff9093169290921790915550565b6001600160a01b0316600090815260036020526040902054600116151590565b6102ab61081c565b806102d1576001600160a01b03821660009081526003602052604090205460fe16610254565b506001600160a01b03166000908152600360205260409020805460ff19811660ff909116176001179055565b61030561081c565b61030f600061087b565b565b6000546001600160a01b031690565b6001600160a01b0382811660009081526004602052604081205490918381169116148061037257506001600160a01b0380831660009081526002602090815260408083209387168352929052205460ff165b9392505050565b3360009081526002602090815260408083206001600160a01b038616845290915290205460ff16806103b557506001546001600160a01b031633145b6104005760405162461bcd60e51b81526020600482015260176024820152761858d8dbdd5b9d0b59dd585c990bdb9bcb5c195c9b5a5d604a1b60448201526064015b60405180910390fd5b6001546001600160a01b0316330361045e576001600160a01b03828116600090815260046020908152604080832080546001600160a01b0319169488169490941790935560028152828220905220805460ff191660011790556104ca565b6001600160a01b038281166000908152600460205260409020548185169116036104ca5760405162461bcd60e51b815260206004820152601d60248201527f6163636f756e742d67756172642f63616e742d64656e792d6f776e657200000060448201526064016103f7565b6001600160a01b038381166000908152600260209081526040808320938616835292905220805460ff1916821580159190911790915561054957816001600160a01b0316836001600160a01b03167f0ceda602a8e00ef76afe24614343eb6c034877c816b6184d641d2d8b713a0fc660405160405180910390a3505050565b816001600160a01b0316836001600160a01b03167f5f708ef9fc37d19d88246c264788c8cdf640c9ff500bd168e941ea1421c4f6c460405160405180910390a3505050565b6001546001600160a01b0316156105e35760405162461bcd60e51b81526020600482015260196024820152781858d8dbdd5b9d0b59dd585c990bd99858dd1bdc9e4b5cd95d603a1b60448201526064016103f7565b600180546001600160a01b03191633179055565b6001600160a01b03821661064a5760405162461bcd60e51b815260206004820152601a6024820152796163636f756e742d67756172642f7a65726f2d6164647265737360301b60448201526064016103f7565b6001600160a01b038181166000908152600460205260409020541633146106b35760405162461bcd60e51b815260206004820152601e60248201527f6163636f756e742d67756172642f6f6e6c792d70726f78792d6f776e6572000060448201526064016103f7565b6001600160a01b03818116600081815260046020908152604080832080546001600160a01b03191695881695861790553380845260028084528285208686528452828520805460ff199081169091558786529084528285208686529093528184208054909316600117909255519293909290917ff613da403ea3a512cfd9a6d475983ef47ea2397949a90b8d935d0a2cb8e620d591a45050565b61075561081c565b6001600160a01b0381166107ba5760405162461bcd60e51b815260206004820152602660248201527f4f776e61626c653a206e6577206f776e657220697320746865207a65726f206160448201526564647265737360d01b60648201526084016103f7565b6107c38161087b565b50565b6001600160a01b038084166000908152600260209081526040808320938816835292905290812054819060ff168361080657610801856101e6565b61080f565b61080f85610283565b9150915094509492505050565b33610825610311565b6001600160a01b03161461030f5760405162461bcd60e51b815260206004820181905260248201527f4f776e61626c653a2063616c6c6572206973206e6f7420746865206f776e657260448201526064016103f7565b600080546001600160a01b038381166001600160a01b0319831681178455604051919092169283917f8be0079c531659141344cd1fd0a4f28419497f9722a3daafe3b4186f6b6457e09190a35050565b80356001600160a01b03811681146108e257600080fd5b919050565b6000602082840312156108f957600080fd5b610372826108cb565b803580151581146108e257600080fd5b6000806040838503121561092557600080fd5b61092e836108cb565b915061093c60208401610902565b90509250929050565b6000806040838503121561095857600080fd5b610961836108cb565b915061093c602084016108cb565b60008060006060848603121561098457600080fd5b61098d846108cb565b925061099b602085016108cb565b91506109a960408501610902565b90509250925092565b600080600080608085870312156109c857600080fd5b6109d1856108cb565b93506109df602086016108cb565b92506109ed604086016108cb565b91506109fb60608601610902565b90509295919450925056fea2646970667358221220cacfc53e417154f35b7378f4478ddf08b3b3b2de4b2fd6381a60cf49c846ff8764736f6c634300080f0033","abi":[{"anonymous":false,"inputs":[{"indexed":true,"internalType":"address","name":"previousOwner","type":"address"},{"indexed":true,"internalType":"address","name":"newOwner","type":"address"}],"name":"OwnershipTransferred","type":"event"},{"anonymous":false,"inputs":[{"indexed":true,"internalType":"address","name":"caller","type":"address"},{"indexed":true,"internalType":"address","name":"proxy","type":"address"}],"name":"PermissionGranted","type":"event"},{"anonymous":false,"inputs":[{"indexed":true,"internalType":"address","name":"caller","type":"address"},{"indexed":true,"internalType":"address","name":"proxy","type":"address"}],"name":"PermissionRevoked","type":"event"},{"anonymous":false,"inputs":[{"indexed":true,"internalType":"address","name":"newOwner","type":"address"},{"indexed":true,"internalType":"address","name":"oldAddress","type":"address"},{"indexed":true,"internalType":"address","name":"proxy","type":"address"}],"name":"ProxyOwnershipTransferred","type":"event"},{"inputs":[{"internalType":"address","name":"target","type":"address"},{"internalType":"address","name":"operator","type":"address"}],"name":"canCall","outputs":[{"internalType":"bool","name":"","type":"bool"}],"stateMutability":"view","type":"function"},{"inputs":[{"internalType":"address","name":"proxy","type":"address"},{"internalType":"address","name":"operator","type":"address"},{"internalType":"address","name":"callTarget","type":"address"},{"internalType":"bool","name":"asDelegateCall","type":"bool"}],"name":"canCallAndWhitelisted","outputs":[{"internalType":"bool","name":"","type":"bool"},{"internalType":"bool","name":"","type":"bool"}],"stateMutability":"view","type":"function"},{"inputs":[{"internalType":"address","name":"newOwner","type":"address"},{"internalType":"address","name":"target","type":"address"}],"name":"changeOwner","outputs":[],"stateMutability":"nonpayable","type":"function"},{"inputs":[],"name":"initializeFactory","outputs":[],"stateMutability":"nonpayable","type":"function"},{"inputs":[{"internalType":"address","name":"target","type":"address"}],"name":"isWhitelisted","outputs":[{"internalType":"bool","name":"","type":"bool"}],"stateMutability":"view","type":"function"},{"inputs":[{"internalType":"address","name":"target","type":"address"}],"name":"isWhitelistedSend","outputs":[{"internalType":"bool","name":"","type":"bool"}],"stateMutability":"view","type":"function"},{"inputs":[],"name":"owner","outputs":[{"internalType":"address","name":"","type":"address"}],"stateMutability":"view","type":"function"},{"inputs":[{"internalType":"address","name":"","type":"address"}],"name":"owners","outputs":[{"internalType":"address","name":"","type":"address"}],"stateMutability":"view","type":"function"},{"inputs":[{"internalType":"address","name":"caller","type":"address"},{"internalType":"address","name":"target","type":"address"},{"internalType":"bool","name":"allowance","type":"bool"}],"name":"permit","outputs":[],"stateMutability":"nonpayable","type":"function"},{"inputs":[],"name":"renounceOwnership","outputs":[],"stateMutability":"nonpayable","type":"function"},{"inputs":[{"internalType":"address","name":"target","type":"address"},{"internalType":"bool","name":"status","type":"bool"}],"name":"setWhitelist","outputs":[],"stateMutability":"nonpayable","type":"function"},{"inputs":[{"internalType":"address","name":"target","type":"address"},{"internalType":"bool","name":"status","type":"bool"}],"name":"setWhitelistSend","outputs":[],"stateMutability":"nonpayable","type":"function"},{"inputs":[{"internalType":"address","name":"newOwner","type":"address"}],"name":"transferOwnership","outputs":[],"stateMutability":"nonpayable","type":"function"}]}