{"address":"0xCD8B4a7Dd87F56B598B5e64ddFB0Ae5AC20C4116","bytecode":"0x60a060405234801561001057600080fd5b50604051620023a6380380620023a683398101604081905261003191610042565b6001600160a01b0316608052610072565b60006020828403121561005457600080fd5b81516001600160a01b038116811461006b57600080fd5b9392505050565b6080516122e1620000c56000396000818160f7015281816101ec015281816104d0015281816105d0015281816108030152818161090e01528181610cf001528181610efb01526110b501526122e16000f3fe60806040526004361061006b5760003560e01c806323e30c8b146100705780633fbeae9f146100a357806360ac8fe6146100c55780637b103999146100e5578063b7c9c69f14610126578063c8d78f5214610146578063f04f270714610166578063f1298ed714610186575b600080fd5b34801561007c57600080fd5b5061009061008b36600461161a565b610199565b6040519081526020015b60405180910390f35b3480156100af57600080fd5b506100c36100be366004611695565b610378565b005b3480156100d157600080fd5b506100c36100e03660046116ce565b6103c1565b3480156100f157600080fd5b506101197f000000000000000000000000000000000000000000000000000000000000000081565b60405161009a91906116eb565b34801561013257600080fd5b506100c36101413660046116ff565b6103ef565b34801561015257600080fd5b506100c361016136600461194a565b610491565b34801561017257600080fd5b506100c36101813660046119d9565b6105ad565b6100c3610194366004611ae3565b6107c2565b6000806101a883850185611b68565b60408051808201825260128152714d6364466c6173684d696e744d6f64756c6560701b60208201529051630851f3bd60e01b81529192506000916001600160a01b037f00000000000000000000000000000000000000000000000000000000000000001691630851f3bd916102209190600401611c78565b602060405180830381865afa15801561023d573d6000803e3d6000fd5b505050506040513d601f19601f820116820180604052508101906102619190611c8b565b905061026c816103c1565b61027a888360200151610378565b6102888883600001516103ef565b610292828a610bcd565b600061029e8888610dd2565b905080896001600160a01b03166370a08231306040518263ffffffff1660e01b81526004016102cd91906116eb565b602060405180830381865afa1580156102ea573d6000803e3d6000fd5b505050506040513d601f19601f8201168201806040525081019061030e9190611ca8565b10156103355760405162461bcd60e51b815260040161032c90611cc1565b60405180910390fd5b6103496001600160a01b038a168383610e38565b507f439148f0bbc682ca079e46d6e2c2f0c1e3b820f1a291b069d8882abf8cf18dd99998505050505050505050565b806001600160a01b0316826001600160a01b0316146103bd57604051639f2334ed60e01b81526001600160a01b0380841660048301528216602482015260440161032c565b5050565b336001600160a01b038216146103ec5733604051633a4123a360e21b815260040161032c91906116eb565b50565b6040516370a0823160e01b81526000906001600160a01b038416906370a082319061041e9030906004016116eb565b602060405180830381865afa15801561043b573d6000803e3d6000fd5b505050506040513d601f19601f8201168201806040525081019061045f9190611ca8565b90508181101561048c57604051633afe323f60e01b8152600481018290526024810183905260440161032c565b505050565b604080518082018252601381527227b832b930ba34b7b722bc32b1baba37b92f9960691b60208201529051630851f3bd60e01b81526001600160a01b037f00000000000000000000000000000000000000000000000000000000000000001691630851f3bd916105049190600401611c78565b602060405180830381865afa158015610521573d6000803e3d6000fd5b505050506040513d601f19601f820116820180604052508101906105459190611c8b565b6001600160a01b0316336001600160a01b0316146105a45760405162461bcd60e51b815260206004820152601c60248201527b27b822bc32b1baba37b91d1021b0b63632b9103337b93134b23232b760211b604482015260640161032c565b6103ec81610eba565b6000846000815181106105c2576105c2611cf8565b6020026020010151905060007f00000000000000000000000000000000000000000000000000000000000000006001600160a01b0316630851f3bd6040518060400160405280600d81526020016c10985b185b98d95c95985d5b1d609a1b8152506040518263ffffffff1660e01b815260040161063f9190611c78565b602060405180830381865afa15801561065c573d6000803e3d6000fd5b505050506040513d601f19601f820116820180604052508101906106809190611c8b565b9050600080848060200190518101906106999190611e3f565b915091506106a6836103c1565b6106b4848360200151610378565b6106c28483600001516103ef565b6106cc8282610bcd565b6000610715876000815181106106e4576106e4611cf8565b6020026020010151896000815181106106ff576106ff611cf8565b6020026020010151610dd290919063ffffffff16565b905080856001600160a01b03166370a08231306040518263ffffffff1660e01b815260040161074491906116eb565b602060405180830381865afa158015610761573d6000803e3d6000fd5b505050506040513d601f19601f820116820180604052508101906107859190611ca8565b10156107a35760405162461bcd60e51b815260040161032c90611cc1565b6107b76001600160a01b03861685836111b4565b505050505050505050565b604080518082018252601281527127b832b930ba34b7b729ba37b930b3b2af9960711b60208201529051630851f3bd60e01b81526000916001600160a01b037f00000000000000000000000000000000000000000000000000000000000000001691630851f3bd9161083691600401611c78565b602060405180830381865afa158015610853573d6000803e3d6000fd5b505050506040513d601f19601f820116820180604052508101906108779190611c8b565b9050806001600160a01b031663f83d08ba6040518163ffffffff1660e01b8152600401600060405180830381600087803b1580156108b457600080fd5b505af11580156108c8573d6000803e3d6000fd5b5050604080518082018252601481527327b832b930ba34b7b739a932b3b4b9ba393caf9960611b60208201529051630851f3bd60e01b8152600093506001600160a01b037f0000000000000000000000000000000000000000000000000000000000000000169250630851f3bd9161094291600401611c78565b602060405180830381865afa15801561095f573d6000803e3d6000fd5b505050506040513d601f19601f820116820180604052508101906109839190611c8b565b9050816001600160a01b03166369bd38a06040518163ffffffff1660e01b8152600401600060405180830381600087803b1580156109c057600080fd5b505af11580156109d4573d6000803e3d6000fd5b50505050600080826001600160a01b0316631fffb05c87876040518363ffffffff1660e01b8152600401610a09929190611f11565b600060405180830381865afa158015610a26573d6000803e3d6000fd5b505050506040513d6000823e601f3d908101601f19168201604052610a4e9190810190611fa4565b6040516342a4b81160e01b815291935091506001600160a01b038516906342a4b81190610a81908590859060040161205f565b600060405180830381600087803b158015610a9b57600080fd5b505af1158015610aaf573d6000803e3d6000fd5b50505050610abc87610eba565b836001600160a01b03166369bd38a06040518163ffffffff1660e01b8152600401600060405180830381600087803b158015610af757600080fd5b505af1158015610b0b573d6000803e3d6000fd5b50505050836001600160a01b031663a69df4b56040518163ffffffff1660e01b8152600401600060405180830381600087803b158015610b4a57600080fd5b505af1158015610b5e573d6000803e3d6000fd5b505050508585604051602001610b759291906120dc565b604051602081830303815290604052610b8d906120ec565b7f71715266c730dfceca3e44620faebf315f8e7d7404b2de5f3121d0d87c17832c88604051610bbc9190612113565b60405180910390a250505050505050565b816040015115610caf5781516020830151610bf5916001600160a01b039091169083906111b4565b806001600160a01b0316631cff79cd3063c8d78f5260e01b8560a00151604051602401610c229190612113565b60408051601f198184030181529181526020820180516001600160e01b03166001600160e01b03199485161790525160e085901b9092168252610c689291600401612196565b6000604051808303816000875af1158015610c87573d6000803e3d6000fd5b505050506040513d6000823e601f3d908101601f1916820160405261048c91908101906121ba565b604080518082018252601281527127b832b930ba34b7b729ba37b930b3b2af9960711b60208201529051630851f3bd60e01b81526000916001600160a01b037f00000000000000000000000000000000000000000000000000000000000000001691630851f3bd91610d2391600401611c78565b602060405180830381865afa158015610d40573d6000803e3d6000fd5b505050506040513d601f19601f82011682018060405250810190610d649190611c8b565b60405163d59dfd6160e01b81529091506001600160a01b0382169063d59dfd6190610d939085906004016116eb565b600060405180830381600087803b158015610dad57600080fd5b505af1158015610dc1573d6000803e3d6000fd5b5050505061048c8360a00151610eba565b600080610ddf8385612204565b905083811015610e2f5760405162461bcd60e51b815260206004820152601b60248201527a536166654d6174683a206164646974696f6e206f766572666c6f7760281b604482015260640161032c565b90505b92915050565b6040516001600160a01b038316602482015260006044820152610e9b90849063095ea7b360e01b906064015b60408051601f198184030181529190526020810180516001600160e01b03166001600160e01b0319909316929092179091526111d3565b61048c8363095ea7b360e01b8484604051602401610e64929190612217565b604080518082018252601281527127b832b930ba34b7b729ba37b930b3b2af9960711b60208201529051630851f3bd60e01b81526000916001600160a01b037f00000000000000000000000000000000000000000000000000000000000000001691630851f3bd91610f2e91600401611c78565b602060405180830381865afa158015610f4b573d6000803e3d6000fd5b505050506040513d601f19601f82011682018060405250810190610f6f9190611c8b565b90506000816001600160a01b0316634b1824a46040518163ffffffff1660e01b8152600401602060405180830381865afa158015610fb1573d6000803e3d6000fd5b505050506040513d601f19601f82011682018060405250810190610fd59190612230565b905060005b83518110156111ae57811561108f57826001600160a01b031663e7acf55a85838151811061100a5761100a611cf8565b60200260200101516000015186848151811061102857611028611cf8565b6020026020010151604001516040518363ffffffff1660e01b815260040161105c9291909182521515602082015260400190565b600060405180830381600087803b15801561107657600080fd5b505af115801561108a573d6000803e3d6000fd5b505050505b8381815181106110a1576110a1611cf8565b60200260200101516040015161119c5760007f00000000000000000000000000000000000000000000000000000000000000006001600160a01b031663c2527b328684815181106110f4576110f4611cf8565b6020026020010151600001516040518263ffffffff1660e01b815260040161111e91815260200190565b602060405180830381865afa15801561113b573d6000803e3d6000fd5b505050506040513d601f19601f8201168201806040525081019061115f9190611c8b565b905061119a85838151811061117657611176611cf8565b602002602001015160200151826001600160a01b03166112a590919063ffffffff16565b505b806111a68161224d565b915050610fda565b50505050565b61048c8363a9059cbb60e01b8484604051602401610e64929190612217565b6000611228826040518060400160405280602081526020017f5361666545524332303a206c6f772d6c6576656c2063616c6c206661696c6564815250856001600160a01b03166113239092919063ffffffff16565b80519091501561048c57808060200190518101906112469190612230565b61048c5760405162461bcd60e51b815260206004820152602a60248201527f5361666545524332303a204552433230206f7065726174696f6e20646964206e6044820152691bdd081cdd58d8d9595960b21b606482015260840161032c565b6112ae8161133c565b6112f55760405162461bcd60e51b815260206004820152601860248201527713dc115e1958dd5d1bdc8e881a5b1b1959d85b0818d85b1b60421b604482015260640161032c565b61048c81604051806060016040528060298152602001612283602991396001600160a01b0385169190611399565b60606113328484600085611498565b90505b9392505050565b6040805160048152602481019091526020810180516001600160e01b03166310bd25b360e31b179052600090819061137390611569565b9050600061138084611569565b6001600160e01b03199081169216919091149392505050565b60606113a484611584565b6113ff5760405162461bcd60e51b815260206004820152602660248201527f416464726573733a2064656c65676174652063616c6c20746f206e6f6e2d636f6044820152651b9d1c9858dd60d21b606482015260840161032c565b600080856001600160a01b03168560405161141a9190612266565b600060405180830381855af49150503d8060008114611455576040519150601f19603f3d011682016040523d82523d6000602084013e61145a565b606091505b5091509150811561146e5791506113359050565b80511561147e5780518082602001fd5b8360405162461bcd60e51b815260040161032c9190611c78565b60606114a385611584565b6114ef5760405162461bcd60e51b815260206004820152601d60248201527f416464726573733a2063616c6c20746f206e6f6e2d636f6e7472616374000000604482015260640161032c565b600080866001600160a01b0316858760405161150b9190612266565b60006040518083038185875af1925050503d8060008114611548576040519150601f19603f3d011682016040523d82523d6000602084013e61154d565b606091505b5091509150811561146e5791506115619050565b949350505050565b6000815160000361157c57506000919050565b506020015190565b6000813f7fc5d2460186f7233c927e7db2dcc703c0e500b653ca82273b7bfad8045d85a470818114801590611561575050151592915050565b6001600160a01b03811681146103ec57600080fd5b60008083601f8401126115e457600080fd5b5081356001600160401b038111156115fb57600080fd5b60208301915083602082850101111561161357600080fd5b9250929050565b60008060008060008060a0878903121561163357600080fd5b863561163e816115bd565b9550602087013561164e816115bd565b9450604087013593506060870135925060808701356001600160401b0381111561167757600080fd5b61168389828a016115d2565b979a9699509497509295939492505050565b600080604083850312156116a857600080fd5b82356116b3816115bd565b915060208301356116c3816115bd565b809150509250929050565b6000602082840312156116e057600080fd5b8135610e2f816115bd565b6001600160a01b0391909116815260200190565b6000806040838503121561171257600080fd5b823561171d816115bd565b946020939093013593505050565b634e487b7160e01b600052604160045260246000fd5b604051606081016001600160401b03811182821017156117635761176361172b565b60405290565b60405160c081016001600160401b03811182821017156117635761176361172b565b604051601f8201601f191681016001600160401b03811182821017156117b3576117b361172b565b604052919050565b60006001600160401b038211156117d4576117d461172b565b5060051b60200190565b60006001600160401b038211156117f7576117f761172b565b50601f01601f191660200190565b600082601f83011261181657600080fd5b8135611829611824826117de565b61178b565b81815284602083860101111561183e57600080fd5b816020850160208301376000918101602001919091529392505050565b80151581146103ec57600080fd5b600082601f83011261187a57600080fd5b8135602061188a611824836117bb565b82815260059290921b840181019181810190868411156118a957600080fd5b8286015b8481101561193f5780356001600160401b03808211156118cd5760008081fd5b908801906060828b03601f19018113156118e75760008081fd5b6118ef611741565b878401358152604080850135848111156119095760008081fd5b6119178e8b83890101611805565b838b015250938201359361192a8561185b565b810193909352505083529183019183016118ad565b509695505050505050565b60006020828403121561195c57600080fd5b81356001600160401b0381111561197257600080fd5b61156184828501611869565b600082601f83011261198f57600080fd5b8135602061199f611824836117bb565b82815260059290921b840181019181810190868411156119be57600080fd5b8286015b8481101561193f57803583529183019183016119c2565b600080600080608085870312156119ef57600080fd5b84356001600160401b0380821115611a0657600080fd5b818701915087601f830112611a1a57600080fd5b81356020611a2a611824836117bb565b82815260059290921b8401810191818101908b841115611a4957600080fd5b948201945b83861015611a70578535611a61816115bd565b82529482019490820190611a4e565b98505088013592505080821115611a8657600080fd5b611a928883890161197e565b94506040870135915080821115611aa857600080fd5b611ab48883890161197e565b93506060870135915080821115611aca57600080fd5b50611ad787828801611805565b91505092959194509250565b600080600060408486031215611af857600080fd5b83356001600160401b0380821115611b0f57600080fd5b611b1b87838801611869565b94506020860135915080821115611b3157600080fd5b50611b3e868287016115d2565b9497909650939450505050565b600281106103ec57600080fd5b8035611b6381611b4b565b919050565b600060208284031215611b7a57600080fd5b81356001600160401b0380821115611b9157600080fd5b9083019060c08286031215611ba557600080fd5b611bad611769565b823581526020830135611bbf816115bd565b60208201526040830135611bd28161185b565b60408201526060830135611be58161185b565b6060820152611bf660808401611b58565b608082015260a083013582811115611c0d57600080fd5b611c1987828601611869565b60a08301525095945050505050565b60005b83811015611c43578181015183820152602001611c2b565b50506000910152565b60008151808452611c64816020860160208601611c28565b601f01601f19169290920160200192915050565b6020815260006113356020830184611c4c565b600060208284031215611c9d57600080fd5b8151610e2f816115bd565b600060208284031215611cba57600080fd5b5051919050565b6020808252601e908201527f496e73756666696369656e742066756e647320666f72207061796261636b0000604082015260600190565b634e487b7160e01b600052603260045260246000fd5b8051611b6381611b4b565b600082601f830112611d2a57600080fd5b8151611d38611824826117de565b818152846020838601011115611d4d57600080fd5b611561826020830160208701611c28565b600082601f830112611d6f57600080fd5b81516020611d7f611824836117bb565b82815260059290921b84018101918181019086841115611d9e57600080fd5b8286015b8481101561193f5780516001600160401b0380821115611dc25760008081fd5b908801906060828b03601f1901811315611ddc5760008081fd5b611de4611741565b87840151815260408085015184811115611dfe5760008081fd5b611e0c8e8b83890101611d19565b838b0152509382015193611e1f8561185b565b81019390935250508352918301918301611da2565b8051611b63816115bd565b60008060408385031215611e5257600080fd5b82516001600160401b0380821115611e6957600080fd5b9084019060c08287031215611e7d57600080fd5b611e85611769565b825181526020830151611e97816115bd565b60208201526040830151611eaa8161185b565b60408201526060830151611ebd8161185b565b6060820152611ece60808401611d0e565b608082015260a083015182811115611ee557600080fd5b611ef188828601611d5e565b60a0830152509350611f0891505060208401611e34565b90509250929050565b60208152816020820152818360408301376000818301604090810191909152601f909201601f19160101919050565b600082601f830112611f5157600080fd5b81516020611f61611824836117bb565b82815260059290921b84018101918181019086841115611f8057600080fd5b8286015b8481101561193f578051611f978161185b565b8352918301918301611f84565b60008060408385031215611fb757600080fd5b82516001600160401b0380821115611fce57600080fd5b818501915085601f830112611fe257600080fd5b81516020611ff2611824836117bb565b82815260059290921b8401810191818101908984111561201157600080fd5b948201945b8386101561202f57855182529482019490820190612016565b9188015191965090935050508082111561204857600080fd5b5061205585828601611f40565b9150509250929050565b604080825283519082018190526000906020906060840190828701845b828110156120985781518452928401929084019060010161207c565b5050508381038285015284518082528583019183019060005b818110156120cf5783511515835292840192918401916001016120b1565b5090979650505050505050565b8183823760009101908152919050565b8051602080830151919081101561210d576000198160200360031b1b821691505b50919050565b60006020808301818452808551808352604092508286019150828160051b87010184880160005b8381101561218857603f19898403018552815160608151855288820151818a87015261216882870182611c4c565b92890151151595890195909552509487019492509086019060010161213a565b509098975050505050505050565b6001600160a01b038316815260406020820181905260009061133290830184611c4c565b6000602082840312156121cc57600080fd5b81516001600160401b038111156121e257600080fd5b61156184828501611d19565b634e487b7160e01b600052601160045260246000fd5b80820180821115610e3257610e326121ee565b6001600160a01b03929092168252602082015260400190565b60006020828403121561224257600080fd5b8151610e2f8161185b565b60006001820161225f5761225f6121ee565b5060010190565b60008251612278818460208701611c28565b919091019291505056fe4f704578656375746f723a206c6f772d6c6576656c2064656c656761746563616c6c206661696c6564a264697066735822122005f0c65cdbe7a9853396e51fb60b9e0162abda491fcc10db897ebe32563046cf64736f6c63430008120033","abi":[{"inputs":[{"internalType":"contract ServiceRegistry","name":"_registry","type":"address"}],"stateMutability":"nonpayable","type":"constructor"},{"inputs":[{"internalType":"uint256","name":"flashloaned","type":"uint256"},{"internalType":"uint256","name":"required","type":"uint256"}],"name":"InconsistentAmount","type":"error"},{"inputs":[{"internalType":"address","name":"flashloaned","type":"address"},{"internalType":"address","name":"required","type":"address"}],"name":"InconsistentAsset","type":"error"},{"inputs":[{"internalType":"address","name":"lender","type":"address"}],"name":"UntrustedLender","type":"error"},{"anonymous":false,"inputs":[{"indexed":true,"internalType":"bytes32","name":"name","type":"bytes32"},{"components":[{"internalType":"bytes32","name":"targetHash","type":"bytes32"},{"internalType":"bytes","name":"callData","type":"bytes"},{"internalType":"bool","name":"skipped","type":"bool"}],"indexed":false,"internalType":"struct Call[]","name":"calls","type":"tuple[]"}],"name":"Operation","type":"event"},{"inputs":[{"components":[{"internalType":"bytes32","name":"targetHash","type":"bytes32"},{"internalType":"bytes","name":"callData","type":"bytes"},{"internalType":"bool","name":"skipped","type":"bool"}],"internalType":"struct Call[]","name":"calls","type":"tuple[]"}],"name":"callbackAggregate","outputs":[],"stateMutability":"nonpayable","type":"function"},{"inputs":[{"internalType":"address","name":"asset","type":"address"},{"internalType":"uint256","name":"requiredAmount","type":"uint256"}],"name":"checkIfFlashloanedAmountIsTheRequiredOne","outputs":[],"stateMutability":"view","type":"function"},{"inputs":[{"internalType":"address","name":"flashloaned","type":"address"},{"internalType":"address","name":"required","type":"address"}],"name":"checkIfFlashloanedAssetIsTheRequiredOne","outputs":[],"stateMutability":"pure","type":"function"},{"inputs":[{"internalType":"address","name":"lender","type":"address"}],"name":"checkIfLenderIsTrusted","outputs":[],"stateMutability":"view","type":"function"},{"inputs":[{"components":[{"internalType":"bytes32","name":"targetHash","type":"bytes32"},{"internalType":"bytes","name":"callData","type":"bytes"},{"internalType":"bool","name":"skipped","type":"bool"}],"internalType":"struct Call[]","name":"calls","type":"tuple[]"},{"internalType":"string","name":"operationName","type":"string"}],"name":"executeOp","outputs":[],"stateMutability":"payable","type":"function"},{"inputs":[{"internalType":"address","name":"initiator","type":"address"},{"internalType":"address","name":"asset","type":"address"},{"internalType":"uint256","name":"amount","type":"uint256"},{"internalType":"uint256","name":"fee","type":"uint256"},{"internalType":"bytes","name":"data","type":"bytes"}],"name":"onFlashLoan","outputs":[{"internalType":"bytes32","name":"","type":"bytes32"}],"stateMutability":"nonpayable","type":"function"},{"inputs":[{"internalType":"contract IERC20[]","name":"tokens","type":"address[]"},{"internalType":"uint256[]","name":"amounts","type":"uint256[]"},{"internalType":"uint256[]","name":"feeAmounts","type":"uint256[]"},{"internalType":"bytes","name":"data","type":"bytes"}],"name":"receiveFlashLoan","outputs":[],"stateMutability":"nonpayable","type":"function"},{"inputs":[],"name":"registry","outputs":[{"internalType":"contract ServiceRegistry","name":"","type":"address"}],"stateMutability":"view","type":"function"}]}