{"address":"0x373857dFe57F0B894f06aF9B16aBF46a28bB3908","bytecode":"0x60e060405234801561001057600080fd5b506040516200144b3803806200144b83398101604081905261003191610066565b6001600160a01b0390811660805291821660c0521660a0526100b3565b6001600160a01b038116811461006357600080fd5b50565b60008060006060848603121561007b57600080fd5b83516100868161004e565b60208501519093506100978161004e565b60408501519092506100a88161004e565b809150509250925092565b60805160a05160c05161135a620000f160003960008181610612015281816106f901526109750152600061080a0152600061025e015261135a6000f3fe60806040526004361061004a5760003560e01c80631dd526ce1461004f5780634cc3b2461461007157806385e92d98146100915780639093410d146100a4578063f301e925146100da575b600080fd5b34801561005b57600080fd5b5061006f61006a366004610b44565b610115565b005b34801561007d57600080fd5b5061006f61008c366004610b44565b610437565b61006f61009f366004610c30565b61058c565b3480156100b057600080fd5b506100c46100bf366004610d5a565b610acb565b6040516100d19190610f2d565b60405180910390f35b3480156100e657600080fd5b506100fc60008051602061130583398151915281565b6040516001600160e01b031990911681526020016100d1565b81156101e557306001600160a01b0316637ceab3b16040518163ffffffff1660e01b81526004016020604051808303816000875af115801561015b573d6000803e3d6000fd5b505050506040513d601f19601f8201168201806040525081019061017f9190610f57565b6001600160a01b031663c55a3cf4823060016040518463ffffffff1660e01b81526004016101af93929190610f74565b600060405180830381600087803b1580156101c957600080fd5b505af11580156101dd573d6000803e3d6000fd5b505050505050565b6000306001600160a01b031663bf7e214f6040518163ffffffff1660e01b81526004016020604051808303816000875af1158015610227573d6000803e3d6000fd5b505050506040513d601f19601f8201168201806040525081019061024b9190610f57565b9050806001600160a01b03811661033d577f00000000000000000000000000000000000000000000000000000000000000006001600160a01b03166365688cc96040518163ffffffff1660e01b81526004016020604051808303816000875af11580156102bc573d6000803e3d6000fd5b505050506040513d601f19601f820116820180604052508101906102e09190610f57565b604051637a9e5e4b60e01b81526001600160a01b03821660048201529091503090637a9e5e4b90602401600060405180830381600087803b15801561032457600080fd5b505af1158015610338573d6000803e3d6000fd5b505050505b60405163b700961360e01b81526001600160a01b0382169063b70096139061037b908690309060008051602061130583398151915290600401610f98565b602060405180830381865afa158015610398573d6000803e3d6000fd5b505050506040513d601f19601f820116820180604052508101906103bc9190610fd0565b610431576040516332fba9a360e21b81526001600160a01b0382169063cbeea68c906103fe908690309060008051602061130583398151915290600401610f98565b600060405180830381600087803b15801561041857600080fd5b505af115801561042c573d6000803e3d6000fd5b505050505b50505050565b81156104d157306001600160a01b0316637ceab3b16040518163ffffffff1660e01b81526004016020604051808303816000875af115801561047d573d6000803e3d6000fd5b505050506040513d601f19601f820116820180604052508101906104a19190610f57565b6001600160a01b031663c55a3cf4823060006040518463ffffffff1660e01b81526004016101af93929190610f74565b6000306001600160a01b031663bf7e214f6040518163ffffffff1660e01b81526004016020604051808303816000875af1158015610513573d6000803e3d6000fd5b505050506040513d601f19601f820116820180604052508101906105379190610f57565b90506001600160a01b03811661054c57505050565b604051632bc3217d60e01b815281906001600160a01b03821690632bc3217d906103fe908690309060008051602061130583398151915290600401610f98565b60006105cd84848080601f016020809104026020016040519081016040528093929190818152602001838380828437600092019190915250610acb92505050565b604080518082018252601381527227b832b930ba34b7b722bc32b1baba37b92f9960691b60208201529051630851f3bd60e01b81529192506000916001600160a01b037f00000000000000000000000000000000000000000000000000000000000000001691630851f3bd916106469190600401610fed565b602060405180830381865afa158015610663573d6000803e3d6000fd5b505050506040513d601f19601f820116820180604052508101906106879190610f57565b90508160400151156106a1576106a1826060015182610115565b6000826080015160018111156106b9576106b9610dd4565b036108b557604080518082018252600c81526b436861696e4c6f675669657760a01b60208201529051630851f3bd60e01b81526000916001600160a01b037f00000000000000000000000000000000000000000000000000000000000000001691630851f3bd9161072c91600401610fed565b602060405180830381865afa158015610749573d6000803e3d6000fd5b505050506040513d601f19601f8201168201806040525081019061076d9190610f57565b604080518082018252600981526809a8688be8c9882a6960bb1b60208201529051637f244b2960e11b81529192506001600160a01b0383169163fe489652916107b891600401610fed565b602060405180830381865afa1580156107d5573d6000803e3d6000fd5b505050506040513d601f19601f820116820180604052508101906107f99190610f57565b6001600160a01b0316635cffe9de837f000000000000000000000000000000000000000000000000000000000000000086600001518730604051602001610841929190611000565b6040516020818303038152906040526040518563ffffffff1660e01b815260040161086f949392919061102a565b6020604051808303816000875af115801561088e573d6000803e3d6000fd5b505050506040513d601f19601f820116820180604052508101906108b29190610fd0565b50505b6001826080015160018111156108cd576108cd610dd4565b03610aac5760408051600180825281830190925260009160208083019080368337505060408051600180825281830190925292935060009291506020808301908036833701905050905083602001518260008151811061092f5761092f611067565b60200260200101906001600160a01b031690816001600160a01b03168152505083600001518160008151811061096757610967611067565b6020026020010181815250507f00000000000000000000000000000000000000000000000000000000000000006001600160a01b0316630851f3bd6040518060400160405280600d81526020016c10985b185b98d95c95985d5b1d609a1b8152506040518263ffffffff1660e01b81526004016109e49190610fed565b602060405180830381865afa158015610a01573d6000803e3d6000fd5b505050506040513d601f19601f82011682018060405250810190610a259190610f57565b6001600160a01b0316635c38449e8484848830604051602001610a49929190611000565b6040516020818303038152906040526040518563ffffffff1660e01b8152600401610a77949392919061107d565b600060405180830381600087803b158015610a9157600080fd5b505af1158015610aa5573d6000803e3d6000fd5b5050505050505b816040015115610ac457610ac4826060015182610437565b5050505050565b610b046040805160c081018252600080825260208201819052918101829052606081018290529060808201908152602001606081525090565b81806020019051810190610b18919061124a565b92915050565b8015158114610b2c57600080fd5b50565b6001600160a01b0381168114610b2c57600080fd5b60008060408385031215610b5757600080fd5b8235610b6281610b1e565b91506020830135610b7281610b2f565b809150509250929050565b634e487b7160e01b600052604160045260246000fd5b604051606081016001600160401b0381118282101715610bb557610bb5610b7d565b60405290565b60405160c081016001600160401b0381118282101715610bb557610bb5610b7d565b604051601f8201601f191681016001600160401b0381118282101715610c0557610c05610b7d565b604052919050565b60006001600160401b03821115610c2657610c26610b7d565b5060051b60200190565b600080600060408486031215610c4557600080fd5b83356001600160401b0380821115610c5c57600080fd5b818601915086601f830112610c7057600080fd5b813581811115610c7f57600080fd5b60208881838601011115610c9257600080fd5b808401965081955080880135935082841115610cad57600080fd5b838801935088601f850112610cc157600080fd5b83359250610cd6610cd184610c0d565b610bdd565b83815260059390931b8401810192818101925089841115610cf657600080fd5b938101935b83851015610d2457843560ff81168114610d155760008081fd5b83529381019391810191610cfb565b80955050505050509250925092565b60006001600160401b03821115610d4c57610d4c610b7d565b50601f01601f191660200190565b600060208284031215610d6c57600080fd5b81356001600160401b03811115610d8257600080fd5b8201601f81018413610d9357600080fd5b8035610da1610cd182610d33565b818152856020838501011115610db657600080fd5b81602084016020830137600091810160200191909152949350505050565b634e487b7160e01b600052602160045260246000fd5b60005b83811015610e05578181015183820152602001610ded565b50506000910152565b60008151808452610e26816020860160208601610dea565b601f01601f19169290920160200192915050565b600081518084526020808501808196508360051b8101915082860160005b85811015610ea55782840389528151606081518652868201518188880152610e8282880182610e0e565b604093840151151597909301969096525098850198935090840190600101610e58565b5091979650505050505050565b8051825260018060a01b0360208201511660208301526040810151151560408301526060810151151560608301526000608082015160028110610f0557634e487b7160e01b600052602160045260246000fd5b8060808501525060a082015160c060a0850152610f2560c0850182610e3a565b949350505050565b602081526000610f406020830184610eb2565b9392505050565b8051610f5281610b2f565b919050565b600060208284031215610f6957600080fd5b8151610f4081610b2f565b6001600160a01b039384168152919092166020820152901515604082015260600190565b6001600160a01b0393841681529190921660208201526001600160e01b0319909116604082015260600190565b8051610f5281610b1e565b600060208284031215610fe257600080fd5b8151610f4081610b1e565b602081526000610f406020830184610e0e565b6040815260006110136040830185610eb2565b905060018060a01b03831660208301529392505050565b6001600160a01b038581168252841660208201526040810183905260806060820181905260009061105d90830184610e0e565b9695505050505050565b634e487b7160e01b600052603260045260246000fd5b6001600160a01b0385811682526080602080840182905286519184018290526000928782019290919060a0860190855b818110156110cb5785518516835294830194918301916001016110ad565b5050858103604087015287518082529082019350915080870160005b83811015611103578151855293820193908201906001016110e7565b5050505082810360608401526111198185610e0e565b979650505050505050565b805160028110610f5257600080fd5b600082601f83011261114457600080fd5b81516020611154610cd183610c0d565b82815260059290921b8401810191818101908684111561117357600080fd5b8286015b8481101561123f5780516001600160401b03808211156111975760008081fd5b908801906060828b03601f19018113156111b15760008081fd5b6111b9610b93565b878401518152604080850151848111156111d35760008081fd5b85019350603f84018d136111e75760008081fd5b888401516111f7610cd182610d33565b8181528e8383880101111561120c5760008081fd5b61121b828c8301858901610dea565b838b01525061122b858401610fc5565b908201528652505050918301918301611177565b509695505050505050565b60006020828403121561125c57600080fd5b81516001600160401b038082111561127357600080fd5b9083019060c0828603121561128757600080fd5b61128f610bbb565b8251815261129f60208401610f47565b60208201526112b060408401610fc5565b60408201526112c160608401610fc5565b60608201526112d260808401611124565b608082015260a0830151828111156112e957600080fd5b6112f587828601611133565b60a0830152509594505050505056fe1cff79cde515a86f6cc1adbebe8ae25888905561371faf11c8102211f56b4870a26469706673582212203292365d994bf0a4ac88afdcac7882a6f4eb0ff4345fb10e49c29df61c5e795764736f6c63430008120033","abi":[{"inputs":[{"internalType":"contract ServiceRegistry","name":"_registry","type":"address"},{"internalType":"address","name":"_dai","type":"address"},{"internalType":"address","name":"_dsGuardFactory","type":"address"}],"stateMutability":"nonpayable","type":"constructor"},{"inputs":[],"name":"ALLOWED_METHOD_HASH","outputs":[{"internalType":"bytes4","name":"","type":"bytes4"}],"stateMutability":"view","type":"function"},{"inputs":[{"internalType":"bytes","name":"data","type":"bytes"},{"internalType":"uint8[]","name":"","type":"uint8[]"}],"name":"execute","outputs":[],"stateMutability":"payable","type":"function"},{"inputs":[{"internalType":"bool","name":"isDPMProxy","type":"bool"},{"internalType":"address","name":"_contractAddr","type":"address"}],"name":"givePermission","outputs":[],"stateMutability":"nonpayable","type":"function"},{"inputs":[{"internalType":"bytes","name":"_callData","type":"bytes"}],"name":"parseInputs","outputs":[{"components":[{"internalType":"uint256","name":"amount","type":"uint256"},{"internalType":"address","name":"asset","type":"address"},{"internalType":"bool","name":"isProxyFlashloan","type":"bool"},{"internalType":"bool","name":"isDPMProxy","type":"bool"},{"internalType":"enum FlashloanProvider","name":"provider","type":"uint8"},{"components":[{"internalType":"bytes32","name":"targetHash","type":"bytes32"},{"internalType":"bytes","name":"callData","type":"bytes"},{"internalType":"bool","name":"skipped","type":"bool"}],"internalType":"struct Call[]","name":"calls","type":"tuple[]"}],"internalType":"struct FlashloanData","name":"params","type":"tuple"}],"stateMutability":"pure","type":"function"},{"inputs":[{"internalType":"bool","name":"isDPMProxy","type":"bool"},{"internalType":"address","name":"_contractAddr","type":"address"}],"name":"removePermission","outputs":[],"stateMutability":"nonpayable","type":"function"}]}